:020000040800F2
:1000000038040020450100081905000859030008BC
:1000100015050008B9010008C90800080000000023
:1000200000000000000000000000000011060008B1
:100030003D020008000000001B050008C50600087E
:100040005F0100085F0100085F0100085F01000810
:100050005F0100085F0100085F0100085F01000800
:100060005F0100085F0100085F0100085F010008F0
:100070005F0100085F0100085F0100085F010008E0
:100080005F0100085F0100085F0100085F010008D0
:100090005F0100085F0100085F0100085F010008C0
:1000A0005F0100085F0100085F0100085F010008B0
:1000B0005F0100085F0100085F0100085F010008A0
:1000C0005F0100085F0100085F0100085F01000890
:1000D0005F0100085F0100085F0100085F01000880
:1000E0005F0100085F0100085F0100085F01000870
:1000F0005F0100085F0100085F0100085F01000860
:100100005F0100085F0100085F0100085F0100084F
:100110005F0100085F0100085F0100085F0100083F
:100120005F0100085F0100085F0100085F0100082F
:10013000DFF80CD000F02EF8004800473D0E000814
:10014000380400200648804706480047FEE7FEE7DF
:10015000FEE7FEE7FEE7FEE7FEE7FEE7FEE7FEE777
:10016000550700083101000830B50B460146002054
:100170002022012409E021FA02F59D4205D303FA69
:1001800002F5491B04FA02F52844151EA2F10102EA
:10019000F1DC30BD064C074D06E0E06840F001039D
:1001A00094E8070098471034AC42F6D3FFF7C4FF39
:1001B000200F0008400F000800BFFEE700B585B023
:1001C0000121880300F0AAF90121052000F0A6F919
:1001D0004FF40070ADF8100018208DF813000320C4
:1001E0008DF8120004A9134800F029F84FF480603C
:1001F000ADF8100004208DF8130004A90D4800F09C
:100200001EF84FF4E13000900020ADF80400ADF886
:100210000600ADF80800ADF80C000C20ADF80A009F
:100220006946054800F0E0FA0121034800F0C2FAEF
:1002300005B000BD000801400038014070472DE9BD
:10024000F04102460025002600200023002400275C
:1002500091F803C00CF00F0591F803C00CF0100CDE
:10026000BCF1000F03D091F802C04CEA050591F8EB
:1002700000C0BCF1000F31D0146800202BE04FF01B
:10028000010C0CFA00F3B1F800C00CEA03069E4220
:1002900020D183004FF00F0C0CFA03F7BC4305FA92
:1002A00003FC4CEA040491F803C0BCF1280F06D10A
:1002B0004FF0010C0CFA00FCC2F814C00AE091F8EF
:1002C00003C0BCF1480F05D14FF0010C0CFA00FC43
:1002D000C2F810C0401C0828D1D31460B1F800C087
:1002E000BCF1FF0F34DD546800202EE000F1080C53
:1002F0004FF0010808FA0CF3B1F800C00CEA03064D
:100300009E4221D183004FF00F0C0CFA03F7BC433F
:1003100005FA03FC4CEA040491F803C0BCF1280F71
:1003200005D100F1080C08FA0CF8C2F8148091F815
:1003300003C0BCF1480F07D100F1080C4FF00108D1
:1003400008FA0CF8C2F81080401C0828CED354607C
:10035000BDE8F0814161704700BFFEE71CB504466F
:1003600006226946104600F05FF89DF800009DF8EF
:10037000011040EA012000B220809DF802009DF8A3
:10038000031040EA012000B260809DF804009DF84F
:10039000051040EA012000B2A080B4F9000000116D
:1003A0002080B4F9020000116080B4F9040000114B
:1003B000A0801CBD08B500200090012269460F20D6
:1003C00000F032F89DF800000A2804D0054800F03B
:1003D0007DFA002008BD9DF8001003A000F076FA19
:1003E0000120F7E7DC0E00084B58434A3920494406
:1003F000203D2025640D0A0070B50024002500BFB3
:1004000006E0002500E06D1CB5F57A7FFBDB641C7F
:10041000B4F57A7FF5DB00211B2000F031F8C02114
:100420001B2000F02DF870BD2DE9F04107460C4669
:10043000154600F0BDFC1C2000F090FC00F0E0FC34
:10044000384600F08BFC00F0DBFC00F0B1FC1D2016
:1004500000F084FC00F0D4FC002606E0012000F04F
:1004600055FC2070641C701CC6B2681EB042F5DCDE
:10047000002000F04BFC207000F0B2FCBDE8F081E1
:1004800070B505460C4600F093FC1C2000F066FC9D
:1004900000F0B6FC284600F061FC00F0B1FC2046FC
:1004A00000F05CFC00F0ACFC00F09AFC70BD0000B9
:1004B00008B501214FF4847000F030F80120ADF848
:1004C000000003208DF8020010208DF8030069461B
:1004D0000E48FFF7B4FE4020ADF8000069460C4816
:1004E000FFF7ADFE8020ADF8000069460848FFF731
:1004F000A6FE01210548FFF72DFF40210448FFF724
:1005000029FF80210248FFF725FF08BD000C0140AC
:100510000020014000BFFEE77047704729B1064A3E
:1005200092690243044B9A6104E0034A9269824350
:10053000014B9A61704700000010024030B5002165
:100540000022002400232D4D6D6805F00C0121B11F
:10055000042905D0082923D105E0294D056022E0B2
:10056000274D05601FE0254D6D6805F47012234D81
:100570006D6805F48034022505EB92421CB9214DCB
:10058000554305600BE01D4D6D6805F400351DB148
:100590001C4D5543056002E0194D5543056002E0CE
:1005A000174D056000BF00BF144D6D6805F0F001E8
:1005B0000909154D6B5C0568DD4045600F4D6D68A0
:1005C00005F4E061090A104D6B5C4568DD4085600B
:1005D0000A4D6D6805F46051C90A0B4D6B5C4568A6
:1005E000DD40C560054D6D6805F44041890B074D40
:1005F0006B5CC568B5FBF3F5056130BD00100240CA
:1006000000127A0000093D001400002024000020A0
:10061000704710B500F002F810BD00000CB50020C6
:10062000019000902548006840F48030234908601C
:1006300000BF2248006800F4003000900198401C80
:100640000190009818B90198B0F5A06FF1D11B483E
:10065000006800F4003010B10120009001E000209B
:1006600000900098012828D11548006840F010003B
:10067000134908600846006820F003000860084637
:10068000006808600D4840680C49486008464068AA
:1006900048600846406848600846406820F003000B
:1006A00048600846406840F00100486000BF0348C9
:1006B000406800F00C000428F9D10CBD0010024085
:1006C0000020024000200CE0074951F8201031B111
:1006D000054951F82010491E034A42F82010411CD8
:1006E000C8B20228F0DB70472800002030B5164859
:1006F00000684FF47A72B0FBF2F1481EB0F1807FCF
:1007000001D301201BE0481E4FF0E022506150173A
:100710000F22002804DB13071C0E0C4B1C5406E0B0
:1007200013071D0E0A4B00F00F04241F1D5500BFB8
:1007300000204FF0E022906107201061002008B1F6
:1007400000BFFEE730BD00000000002000E400E034
:1007500018ED00E010B51348006840F001001149A1
:10076000086008464068104908400E49486008463D
:1007700000680E4908400B4908600846006820F4EC
:10078000802008600846406820F4FE0048604FF46E
:100790001F008860FFF73DFF4FF0006004490860CC
:1007A00010BD0000001002400000FFF8FFFFF6FE41
:1007B00008ED00E021B1828942F40052828104E018
:1007C00082894DF6FF731A408281704702460020ED
:1007D000B1F5007F00D100BF13880B400BB10120A1
:1007E00000E00020704700002DE9F04786B0054684
:1007F0000E460024A24600BFA1460027B08900B1E2
:1008000000BF2F462C8A4CF6FF700440F08804434A
:100810002C82AC894EF6F3100440B088318908432D
:10082000718908430443AC81AC8A4FF6FF40044011
:10083000B0890443AC8201A8FFF780FE1F488742BD
:1008400002D1DDF810A001E0DDF80CA0A88900F4C9
:10085000004040B10AEBCA0000EB0A1031684900C1
:10086000B0FBF1F807E00AEBCA0000EB0A103168B0
:100870008900B0FBF1F86420B8FBF0F00401200916
:10088000642101FB1089A88900F4004040B13220A6
:1008900000EBC900B0FBF1F000F00700044308E0F2
:1008A000322000EB09106421B0FBF1F000F00F00E2
:1008B00004432C8106B0BDE8F087000000380140F9
:1008C000C1F308028280704700BFFEE70FB4054BFA
:1008D00010B503A9044A029800F018F810BC5DF89E
:1008E00014FB0000510C00083000002002E008C892
:1008F000121F08C1002AFAD170477047002001E09A
:1009000001C1121F002AFBD1704700002DE9FF4FE3
:100910008BB088460546002606E025280BD0DDE989
:100920000D1290476D1C761C28780028F5D10FB069
:100930003046BDE8F08F0024A146A2460122AE4910
:1009400000E0044315F8013F203B02FA03F008429F
:10095000F7D128782A2810D06FF02F022878A0F13C
:100960003001092915D809EB890102EB410144F056
:10097000020400EB01096D1CF0E758F8041B5FEA64
:10098000010903D544F40054C9F1000944F00204FC
:100990006D1C28782E2817D115F8010F44F0040497
:1009A0002A280ED06FF02F022878A0F130010929F3
:1009B0000AD80AEB8A0102EB410100EB010A6D1C27
:1009C000F2E758F804AB6D1C28786C280FD006DCD1
:1009D0004C2817D068280DD06A2814D104E0742858
:1009E00010D07A280FD10DE044F400140AE044F44A
:1009F000801401E044F440146978814202D104F586
:100A000080146D1C6D1C2878692865D006DC0028D0
:100A10008DD0632827D0642806D15DE06E2808D0E9
:100A200073282AD0752877D0DDE90D129047761CFF
:100A3000E0E0C4F30250022809D003280DD0D8F812
:100A4000001004280DD00E6008F10408D2E0D8F898
:100A50000010F217C1E90062F6E7D8F800100E8026
:100A6000F2E70E70F0E718F8041B8DF80010002074
:100A70008DF80100EB46012003E058F804BB4FF06D
:100A8000FF3061074FF0000701D40AE07F1C574593
:100A90000DDA8742FADB1BF807100029F6D106E0D1
:100AA0007F1C8742FCDB1BF807100029F8D1DDE929
:100AB0000D23A9EB07008146214600F0B1F8304430
:100AC000C61904E0DDE90D121BF8010B90477F1EEB
:100AD000F8D22146484688E058F8040BC4F3025186
:100AE0004FF00A0B032900D100B2042900D140B213
:100AF000002802DA40422D2102E0210505D52B21F4
:100B00008DF82410012104E006E0E10710D0202137
:100B1000F6E708AF089113E058F8040BC4F302514C
:100B20004FF00A0B032900D180B2042900D1C0B2D2
:100B30000021EEE75946FFF717FB303107F8011D9A
:100B40000028F7D1ADEB070000F1200B600702D5BC
:100B500024F4803401E04FF0010ADA4502DDAAEB0B
:100B60000B0000E00020824600EB0B0108980144D6
:100B7000A9EB01000A90E00306D4DDE90D2321462C
:100B80000A9800F04DF806444FF0000908E009A962
:100B900011F80900DDE90D12904709F10109761CF1
:100BA00008998945F3DBE0030CD5DDE90D232146E7
:100BB0000A9800F035F8064404E0DDE90D12302013
:100BC0009047761CBAF10001AAF1010AF5DC05E0B4
:100BD000DDE90D1217F8010B9047761CBBF10001FF
:100BE000ABF1010BF4DC0A982146DDE90D2300F09E
:100BF00005F806446D1C97E6092801002DE9F0412F
:100C0000044600251E461746880404D405E03946EC
:100C10002020B0476D1C641EF9D52846BDE8F08140
:100C20002DE9F041044600251E469046C80301D533
:100C3000302700E02027880404D505E041463846E7
:100C4000B0476D1C641EF9D52846BDE8F081000050
:100C500070B504460D46E1B20548FFF731FE00BF0E
:100C600080210348FFF7B2FD0028F9D0204670BD6F
:100C70000038014010B580200949086000F02AF8CA
:100C800040200749091F086000F024F8402004496B
:100C9000086000F01FF880200149091F086010BD9E
:100CA000140C014008B501210820FFF737FCC020D3
:100CB000ADF8000003208DF8020014208DF8030029
:100CC00069460348FFF7BBFA00F08AF808BD000048
:100CD000000C0140002001E0411C88B26428FBDBCD
:100CE0007047000010B5802007490860FFF7F2FF49
:100CF000402005490860FFF7EDFF40200249091D2B
:100D00000860FFF7E7FF10BD100C014070B5054605
:100D10000024002616E06006040E40200E490860FC
:100D2000FFF7D8FF0C480838006800F0800008B1D1
:100D3000601CC4B240200849091D0860FFF7CAFFC3
:100D4000701CC6B2082EE6DB15B9FFF7CBFF01E039
:100D5000FFF790FF204670BD100C014070B50446AF
:100D6000002520E004F0800018B180200F490860C1
:100D700003E080200D49091D0860FFF7ABFF40200C
:100D80000A490860FFF7A6FF40200849091D0860CE
:100D9000072D02D18020091F08606006040EFFF7AE
:100DA00099FF681CC5B2082DDCDB70BD100C01403A
:100DB00010B580200949086040200860FFF78AFFCD
:100DC00080200649091D0860FFF784FF4020034981
:100DD000091D0860FFF77EFF10BD0000100C0140E8
:100DE00010B58020054908604020091F0860FFF702
:100DF00071FF80200149091F086010BD140C0140DB
:100E000010B580200C490860FFF764FF40200A49B4
:100E10000860FFF75FFF08480838006800F08000AE
:100E200008B1012400E0002440200349091D0860A6
:100E3000FFF750FF204610BD100C01401CB5FFF716
:100E400037FBFFF7BBF9FFF72DFFFFF74FFCFFF76D
:100E5000D3FAFFF7AFFA20B912A0FFF737FD00BFB2
:100E6000FEE71EE01448006848B91448006880F0A6
:100E70000100124908604FF47A700F4908600E486B
:100E8000406870B96846FFF769FABDF90430BDF9EA
:100E90000220BDF900100AA0FFF718FD64200649E2
:100EA0004860DFE7BCECB2E2B2BBB5BD4B58434A89
:100EB00039A3ACCDA3BBFA00280000200C0C0140E4
:100EC0000D0ABCD3CBD9B6C8A3BA202538642538BF
:100ED0006425386420202020000000004B58434A3D
:100EE0003920646563746563746564206572726F2C
:100EF00072210D0ABCECB2E2B2BBB5BD4B58434AFD
:100F000039C4A3BFE9A3ACC7EBBCECB2E9C4A3BF2F
:100F1000E9D3EBBFAAB7A2B0E5B5C4BDD3CFDF001C
:100F2000400F00080000002034000000EC0800081A
:100F3000740F00083400002004040000FC080008BE
:100F400000127A000000000000000000010203040B
:100F5000060708090000000001020304010203045F
:100F6000060708090204060800000000000000004F
:040F7000000000007D
:0400000508000131BD
:00000001FF
